{
  "contractName": "Betting",
  "abi": [
    {
      "constant": true,
      "inputs": [],
      "name": "gamblerB",
      "outputs": [
        {
          "name": "",
          "type": "address"
        }
      ],
      "payable": false,
      "stateMutability": "view",
      "type": "function"
    },
    {
      "constant": true,
      "inputs": [],
      "name": "gamblerA",
      "outputs": [
        {
          "name": "",
          "type": "address"
        }
      ],
      "payable": false,
      "stateMutability": "view",
      "type": "function"
    },
    {
      "constant": true,
      "inputs": [],
      "name": "oracle",
      "outputs": [
        {
          "name": "",
          "type": "address"
        }
      ],
      "payable": false,
      "stateMutability": "view",
      "type": "function"
    },
    {
      "constant": true,
      "inputs": [],
      "name": "owner",
      "outputs": [
        {
          "name": "",
          "type": "address"
        }
      ],
      "payable": false,
      "stateMutability": "view",
      "type": "function"
    },
    {
      "constant": true,
      "inputs": [
        {
          "name": "",
          "type": "uint256"
        }
      ],
      "name": "outcomes",
      "outputs": [
        {
          "name": "",
          "type": "uint256"
        }
      ],
      "payable": false,
      "stateMutability": "view",
      "type": "function"
    },
    {
      "inputs": [
        {
          "name": "_outcomes",
          "type": "uint256[]"
        }
      ],
      "payable": false,
      "stateMutability": "nonpayable",
      "type": "constructor"
    },
    {
      "payable": true,
      "stateMutability": "payable",
      "type": "fallback"
    },
    {
      "anonymous": false,
      "inputs": [
        {
          "indexed": false,
          "name": "gambler",
          "type": "address"
        }
      ],
      "name": "BetMade",
      "type": "event"
    },
    {
      "anonymous": false,
      "inputs": [],
      "name": "BetClosed",
      "type": "event"
    },
    {
      "constant": false,
      "inputs": [
        {
          "name": "_oracle",
          "type": "address"
        }
      ],
      "name": "chooseOracle",
      "outputs": [
        {
          "name": "",
          "type": "address"
        }
      ],
      "payable": false,
      "stateMutability": "nonpayable",
      "type": "function"
    },
    {
      "constant": false,
      "inputs": [
        {
          "name": "_outcome",
          "type": "uint256"
        }
      ],
      "name": "makeBet",
      "outputs": [
        {
          "name": "",
          "type": "bool"
        }
      ],
      "payable": true,
      "stateMutability": "payable",
      "type": "function"
    },
    {
      "constant": false,
      "inputs": [
        {
          "name": "_outcome",
          "type": "uint256"
        }
      ],
      "name": "makeDecision",
      "outputs": [],
      "payable": false,
      "stateMutability": "nonpayable",
      "type": "function"
    },
    {
      "constant": false,
      "inputs": [
        {
          "name": "withdrawAmount",
          "type": "uint256"
        }
      ],
      "name": "withdraw",
      "outputs": [
        {
          "name": "",
          "type": "uint256"
        }
      ],
      "payable": false,
      "stateMutability": "nonpayable",
      "type": "function"
    },
    {
      "constant": true,
      "inputs": [
        {
          "name": "outcome",
          "type": "uint256"
        }
      ],
      "name": "checkOutcomes",
      "outputs": [
        {
          "name": "",
          "type": "uint256"
        }
      ],
      "payable": false,
      "stateMutability": "view",
      "type": "function"
    },
    {
      "constant": true,
      "inputs": [],
      "name": "checkWinnings",
      "outputs": [
        {
          "name": "",
          "type": "uint256"
        }
      ],
      "payable": false,
      "stateMutability": "view",
      "type": "function"
    },
    {
      "constant": false,
      "inputs": [],
      "name": "contractReset",
      "outputs": [],
      "payable": false,
      "stateMutability": "nonpayable",
      "type": "function"
    }
  ],
  "bytecode": "0x6060604052341561000f57600080fd5b6040516111bc3803806111bc833981016040528080518201919050506000336000806101000a81548173ffffffffffffffffffffffffffffffffffffffff021916908373ffffffffffffffffffffffffffffffffffffffff160217905550600090505b81518110156100b757818181518110151561008957fe5b9060200190602002015160066000838152602001908152602001600020819055508080600101915050610072565b50506110f4806100c86000396000f3006060604052600436106100ba576000357c0100000000000000000000000000000000000000000000000000000000900463ffffffff168063113023ca146100bf5780631def0573146101145780632e1a7d4d146101695780635ee715d6146101a05780636d0b502f146101c9578063718cc769146102005780637dc0d1d01461023057806380c1367e146102855780638da5cb5b146102a8578063a7a5ce88146102fd578063d0aa7e2514610312578063eed2a1471461038b575b600080fd5b34156100ca57600080fd5b6100d26103c2565b604051808273ffffffffffffffffffffffffffffffffffffffff1673ffffffffffffffffffffffffffffffffffffffff16815260200191505060405180910390f35b341561011f57600080fd5b6101276103e8565b604051808273ffffffffffffffffffffffffffffffffffffffff1673ffffffffffffffffffffffffffffffffffffffff16815260200191505060405180910390f35b341561017457600080fd5b61018a600480803590602001909190505061040e565b6040518082815260200191505060405180910390f35b34156101ab57600080fd5b6101b3610572565b6040518082815260200191505060405180910390f35b34156101d457600080fd5b6101ea60048080359060200190919050506105b9565b6040518082815260200191505060405180910390f35b61021660048080359060200190919050506105d6565b604051808215151515815260200191505060405180910390f35b341561023b57600080fd5b610243610895565b604051808273ffffffffffffffffffffffffffffffffffffffff1673ffffffffffffffffffffffffffffffffffffffff16815260200191505060405180910390f35b341561029057600080fd5b6102a660048080359060200190919050506108bb565b005b34156102b357600080fd5b6102bb610ff7565b604051808273ffffffffffffffffffffffffffffffffffffffff1673ffffffffffffffffffffffffffffffffffffffff16815260200191505060405180910390f35b341561030857600080fd5b61031061101c565b005b341561031d57600080fd5b610349600480803573ffffffffffffffffffffffffffffffffffffffff16906020019091905050611068565b604051808273ffffffffffffffffffffffffffffffffffffffff1673ffffffffffffffffffffffffffffffffffffffff16815260200191505060405180910390f35b341561039657600080fd5b6103ac60048080359060200190919050506110b0565b6040518082815260200191505060405180910390f35b600260009054906101000a900473ffffffffffffffffffffffffffffffffffffffff1681565b600160009054906101000a900473ffffffffffffffffffffffffffffffffffffffff1681565b600080600560003373ffffffffffffffffffffffffffffffffffffffff1673ffffffffffffffffffffffffffffffffffffffff168152602001908152602001600020549050600081111561052a5782600560003373ffffffffffffffffffffffffffffffffffffffff1673ffffffffffffffffffffffffffffffffffffffff168152602001908152602001600020600082825403925050819055503373ffffffffffffffffffffffffffffffffffffffff166108fc849081150290604051600060405180830381858888f1935050505015156105295780600560003373ffffffffffffffffffffffffffffffffffffffff1673ffffffffffffffffffffffffffffffffffffffff168152602001908152602001600020819055505b5b600560003373ffffffffffffffffffffffffffffffffffffffff1673ffffffffffffffffffffffffffffffffffffffff16815260200190815260200160002054915050919050565b6000600560003373ffffffffffffffffffffffffffffffffffffffff1673ffffffffffffffffffffffffffffffffffffffff16815260200190815260200160002054905090565b600060066000838152602001908152602001600020549050919050565b600080600160009054906101000a900473ffffffffffffffffffffffffffffffffffffffff1673ffffffffffffffffffffffffffffffffffffffff1614156107565733600160006101000a81548173ffffffffffffffffffffffffffffffffffffffff021916908373ffffffffffffffffffffffffffffffffffffffff16021790555060606040519081016040528083815260200134815260200160011515815250600460003373ffffffffffffffffffffffffffffffffffffffff1673ffffffffffffffffffffffffffffffffffffffff168152602001908152602001600020600082015181600001556020820151816001015560408201518160020160006101000a81548160ff0219169083151502179055509050507fdcd2da66e8984bfcbbe0c67e276d4409dc4f49b29be35637f00eb421e60c010f33604051808273ffffffffffffffffffffffffffffffffffffffff1673ffffffffffffffffffffffffffffffffffffffff16815260200191505060405180910390a1610890565b33600260006101000a81548173ffffffffffffffffffffffffffffffffffffffff021916908373ffffffffffffffffffffffffffffffffffffffff16021790555060606040519081016040528083815260200134815260200160011515815250600460003373ffffffffffffffffffffffffffffffffffffffff1673ffffffffffffffffffffffffffffffffffffffff168152602001908152602001600020600082015181600001556020820151816001015560408201518160020160006101000a81548160ff0219169083151502179055509050507fdcd2da66e8984bfcbbe0c67e276d4409dc4f49b29be35637f00eb421e60c010f33604051808273ffffffffffffffffffffffffffffffffffffffff1673ffffffffffffffffffffffffffffffffffffffff16815260200191505060405180910390a15b919050565b600360009054906101000a900473ffffffffffffffffffffffffffffffffffffffff1681565b8060046000600260009054906101000a900473ffffffffffffffffffffffffffffffffffffffff1673ffffffffffffffffffffffffffffffffffffffff1673ffffffffffffffffffffffffffffffffffffffff1681526020019081526020016000206000015460046000600160009054906101000a900473ffffffffffffffffffffffffffffffffffffffff1673ffffffffffffffffffffffffffffffffffffffff1673ffffffffffffffffffffffffffffffffffffffff168152602001908152602001600020600001541415610b375760046000600160009054906101000a900473ffffffffffffffffffffffffffffffffffffffff1673ffffffffffffffffffffffffffffffffffffffff1673ffffffffffffffffffffffffffffffffffffffff1681526020019081526020016000206001015460056000600160009054906101000a900473ffffffffffffffffffffffffffffffffffffffff1673ffffffffffffffffffffffffffffffffffffffff1673ffffffffffffffffffffffffffffffffffffffff1681526020019081526020016000206000828254019250508190555060046000600260009054906101000a900473ffffffffffffffffffffffffffffffffffffffff1673ffffffffffffffffffffffffffffffffffffffff1673ffffffffffffffffffffffffffffffffffffffff1681526020019081526020016000206001015460056000600260009054906101000a900473ffffffffffffffffffffffffffffffffffffffff1673ffffffffffffffffffffffffffffffffffffffff1673ffffffffffffffffffffffffffffffffffffffff16815260200190815260200160002060008282540192505081905550610fc7565b8160046000600160009054906101000a900473ffffffffffffffffffffffffffffffffffffffff1673ffffffffffffffffffffffffffffffffffffffff1673ffffffffffffffffffffffffffffffffffffffff168152602001908152602001600020600001541415610ce15760046000600260009054906101000a900473ffffffffffffffffffffffffffffffffffffffff1673ffffffffffffffffffffffffffffffffffffffff1673ffffffffffffffffffffffffffffffffffffffff1681526020019081526020016000206001015460046000600160009054906101000a900473ffffffffffffffffffffffffffffffffffffffff1673ffffffffffffffffffffffffffffffffffffffff1673ffffffffffffffffffffffffffffffffffffffff168152602001908152602001600020600101540160056000600160009054906101000a900473ffffffffffffffffffffffffffffffffffffffff1673ffffffffffffffffffffffffffffffffffffffff1673ffffffffffffffffffffffffffffffffffffffff16815260200190815260200160002060008282540192505081905550610fc6565b8160046000600260009054906101000a900473ffffffffffffffffffffffffffffffffffffffff1673ffffffffffffffffffffffffffffffffffffffff1673ffffffffffffffffffffffffffffffffffffffff168152602001908152602001600020600001541415610e8b5760046000600260009054906101000a900473ffffffffffffffffffffffffffffffffffffffff1673ffffffffffffffffffffffffffffffffffffffff1673ffffffffffffffffffffffffffffffffffffffff1681526020019081526020016000206001015460046000600160009054906101000a900473ffffffffffffffffffffffffffffffffffffffff1673ffffffffffffffffffffffffffffffffffffffff1673ffffffffffffffffffffffffffffffffffffffff168152602001908152602001600020600101540160056000600260009054906101000a900473ffffffffffffffffffffffffffffffffffffffff1673ffffffffffffffffffffffffffffffffffffffff1673ffffffffffffffffffffffffffffffffffffffff16815260200190815260200160002060008282540192505081905550610fc5565b60046000600260009054906101000a900473ffffffffffffffffffffffffffffffffffffffff1673ffffffffffffffffffffffffffffffffffffffff1673ffffffffffffffffffffffffffffffffffffffff1681526020019081526020016000206001015460046000600160009054906101000a900473ffffffffffffffffffffffffffffffffffffffff1673ffffffffffffffffffffffffffffffffffffffff1673ffffffffffffffffffffffffffffffffffffffff168152602001908152602001600020600101540160056000600360009054906101000a900473ffffffffffffffffffffffffffffffffffffffff1673ffffffffffffffffffffffffffffffffffffffff1673ffffffffffffffffffffffffffffffffffffffff168152602001908152602001600020600082825401925050819055505b5b5b7f077212d4d7a1f32f5a1799a3b05e05b15f3ad33584b11615f0b68d9c4c03fd6260405160405180910390a15050565b6000809054906101000a900473ffffffffffffffffffffffffffffffffffffffff1681565b600160006101000a81549073ffffffffffffffffffffffffffffffffffffffff0219169055600260006101000a81549073ffffffffffffffffffffffffffffffffffffffff0219169055565b600081600360006101000a81548173ffffffffffffffffffffffffffffffffffffffff021916908373ffffffffffffffffffffffffffffffffffffffff160217905550919050565b600660205280600052604060002060009150905054815600a165627a7a723058209e483095311c59f7e7c023b9848a338212b4588c4eb7642e656dc3cc9ee6dcd30029",
  "source": "pragma solidity 0.4.19;\n\n\ncontract Betting {\n    /* Constructor function, where owner and outcomes are set */\n    function Betting(uint[] _outcomes) public {\n      owner = msg.sender;\n      for (uint i = 0; i < _outcomes.length; i++) {\n        outcomes[i] = _outcomes[i];\n      }\n    }\n\n    /* Fallback function */\n    function() public payable {\n        revert();\n    }\n\n    /* Standard state variables */\n    address public owner;\n    address public gamblerA;\n    address public gamblerB;\n    address public oracle;\n\n    /* Structs are custom data structures with self-defined parameters */\n    struct Bet {\n        uint outcome;\n        uint amount;\n        bool initialized;\n    }\n\n    /* Keep track of every gambler's bet */\n    mapping (address => Bet) bets;\n    /* Keep track of every player's winnings (if any) */\n    mapping (address => uint) winnings;\n    /* Keep track of all outcomes (maps index to numerical outcome) */\n    mapping (uint => uint) public outcomes;\n\n    /* Add any events you think are necessary */\n    event BetMade(address gambler);\n    event BetClosed();\n\n    /* Uh Oh, what are these? */\n    modifier ownerOnly() {_;}\n    modifier oracleOnly() {_;}\n    modifier outcomeExists(uint outcome) {_;}\n\n    /* Owner chooses their trusted Oracle */\n    function chooseOracle(address _oracle) public ownerOnly() returns (address) {\n      oracle = _oracle;\n    }\n\n    /* Gamblers place their bets, preferably after calling checkOutcomes */\n    function makeBet(uint _outcome) public payable returns (bool) {\n      if (gamblerA == 0) {\n        gamblerA = msg.sender;\n        bets[msg.sender] = Bet(_outcome, msg.value, true);\n        BetMade(msg.sender);\n      } else {\n        gamblerB = msg.sender;\n        bets[msg.sender] = Bet(_outcome, msg.value, true);\n        BetMade(msg.sender);\n      }\n    }\n\n    /* The oracle chooses which outcome wins */\n    function makeDecision(uint _outcome) public oracleOnly() outcomeExists(_outcome) {\n      if (bets[gamblerA].outcome == bets[gamblerB].outcome) {\n        winnings[gamblerA] += bets[gamblerA].amount;\n        winnings[gamblerB] += bets[gamblerB].amount;\n      } else if (bets[gamblerA].outcome == _outcome) {\n        winnings[gamblerA] += bets[gamblerA].amount + bets[gamblerB].amount;\n      } else if (bets[gamblerB].outcome == _outcome) {\n        winnings[gamblerB] += bets[gamblerA].amount + bets[gamblerB].amount;\n      } else {\n        winnings[oracle] += bets[gamblerA].amount + bets[gamblerB].amount;\n      }\n      BetClosed();\n    }\n\n    /* Allow anyone to withdraw their winnings safely (if they have enough) */\n    function withdraw(uint withdrawAmount) public returns (uint) {\n      uint amount = winnings[msg.sender];\n      if (amount > 0) {\n        winnings[msg.sender] -= withdrawAmount;\n        if (!msg.sender.send(withdrawAmount)) {\n          winnings[msg.sender] = amount;\n        }\n      }\n      return winnings[msg.sender];\n    }\n\n    /* Allow anyone to check the outcomes they can bet on */\n    function checkOutcomes(uint outcome) public view returns (uint) {\n      return outcomes[outcome];\n    }\n\n    /* Allow anyone to check if they won any bets */\n    function checkWinnings() public view returns(uint) {\n      return winnings[msg.sender];\n    }\n\n    /* Call delete() to reset certain state variables. Which ones? That's up to you to decide */\n    function contractReset() public ownerOnly() {\n      delete(gamblerA);\n      delete(gamblerB);\n    }\n}\n",
  "sourcePath": "/Users/rachelye/Desktop/blockchaindev/sp18-lab02/Betting Contract/contracts/betting.sol",
  "compiler": {
    "name": "solc",
    "version": "0.4.19+commit.c4cbbb05.Emscripten.clang"
  },
  "schemaVersion": "1.0.1",
  "updatedAt": "2018-02-22T23:24:23.088Z"
}